:100000008E1204000000000000000000000000004C
:1000100000000000000000000000000000000000E0
:1000200000000000000000000000000000000000D0
:1000300000000000000000000000000000000000C0
:1000400000000000000000000000000000000000B0
:1000500000000000000000000000000000000000A0
:100060000000000000000000000000000000000090
:100070000000000000000000000000000000000080
:100080000000000000000000000000000000000070
:100090000000000000000000000000000000000060
:1000A0000000000000000000000000000000000050
:1000B0000000000000000000000000000000000040
:1000C0000000000000000000000000000000000030
:1000D0000000000000000000000000000000000020
:1000E0000000000000000000000000000000000010
:1000F0000000000000000000000000000000000000
:1001000000000000000000000000000000000000EF
:1001100000000000000000000000000000000000DF
:1001200000000000000000000000000000000000CF
:1001300000000000000000000000000000000000BF
:1001400000000000000000000000000000000000AF
:10015000000000000000000000000000000000009F
:10016000000000000000000000000000000000008F
:10017000000000000000000000000000000000007F
:10018000000000000000000000000000000000006F
:10019000000000000000000000000000000000005F
:1001A000000000000000000000000000000000004F
:1001B000000000000000000000000000000000003F
:1001C000000000000000000000000000000000002F
:1001D000000000000000000000000000000000001F
:1001E000000000000000000000000000000000000F
:1001F00000000000000000000000000000000000FF
:10251C00EFD52000F0FF200020A0B7000000200025
:10252C0034A0B700400020004420B7000200FA009D
:10253C008C140200000000008A1F78008B1F7800AA
:10254C008C1F7800C822EF00C622A800C602A80083
:10255C000A202C001B002000ABFF07000801200004
:10256C00971220000E20ED00FEFF3A001020ED0027
:10257C00FCFF3A000000000014FF07000020EF00F1
:10258C00805D880010408000E100500000BB2000FE
:10259C001008E10024003500805D8000C200DD00E1
:1025AC004093200001004000000798001A00200012
:1025BC0090FF07008000EB0085FA07000200200066
:1025CC00030A240074F9070002002F00F3572400BB
:1025DC0087F707000E0190000089BE00805D800027
:1025EC004201DD00408B200082004000409320001F
:1025FC0002004000B0187800A0107800805D8000C8
:10260C00C200DD0040832000010140000020EF00EB
:10261C000220EF000089BE001100200000BB20004A
:10262C0010884000D7FF37004B8320004A8B2000D6
:10263C00B5FE07001C0020006BC420004ABC200023
:10264C00E5FB07000020EF00805D8800815D8000C5
:10265C00008020001008E10014003D002062800082
:10266C004201DD00809A200082004000408B200057
:10267C0002004000B0187800A010780020628000A2
:10268C004201DD0080B22000820040004083200027
:10269C0002004000B0187800A01078001100200053
:1026AC0000BB200010884000E8FF3700D3FE070075
:1026BC004B8320004A8B200093FE07001C00200057
:1026CC006BC420004ABC2000C3FB07000020EF00B5
:1026DC00805D8800815D8000008020001008E10092
:1026EC0026003D0020628000C200DD0080AA200090
:1026FC000100400000079800809A20000100400073
:10270C00B001780020027800408B200001014000CD
:10271C001200BE0003017800840178001EF9070046
:10272C000E0190000089BE0020628000C200DD0016
:10273C0080A22000010040000007980080B2200019
:10274C0001004000B0017800200278004083200096
:10275C00010140001200BE000301780084017800E2
:10276C000DF907000E0190000089BE001100200039
:10277C0000BB200010884000D6FF37001820EF0067
:10278C008BA220008AAA200093FB07000020EF00F8
:10279C00805D8800815D8000208020001008E100B1
:1027AC000F003D00805D8000C200DD0040932000E2
:1027BC00010040003C8220001005BE002AFD0700ED
:1027CC003A8220003FFE0700CA02200078FA070078
:1027DC001100200000BB200010884000EDFF3700E6
:1027EC00DA00200072FA0700AA00200070FA070035
:1027FC000020EF00805D880010408000E100500058
:10280C0000BB20001008E1001A003500805D80003C
:10281C00C200DD00408B2000010040004C812000F4
:10282C001005BE0010FD07004A81200025FE0700A0
:10283C00BA0220005EFA0700805D8000C200DD0055
:10284C0040832000010040004C8120001005BE0098
:10285C0005FD07004A8120001AFE0700CA0220006D
:10286C0053FA07001100200000BB20001088400024
:10287C00E1FF3700DA0020004DFA0700AA00200023
:10288C004BFA07003DFF37004F067800CF05780064
:0C289C004F0578000080FA00FFFF3700B5
:102414000800FA00E08D2000505D8800F0FF2F00D6
:10242400405D8800F0FF2F00605D8800F0FF2F0002
:10243400705D88000C22EF00000028000EA2B70097
:1024440064FC0700823E20000300200042FB0700DA
:102454000002BE0034FC07004100DE0064004000BE
:10246400800078000A01BE008100E9000300350005
:102474000201D0008381D200FBFF370002079800DD
:1024840013079800849FBE000400BE000002EB0006
:1024940078FB07004F02BE00200798003107980020
:1024A4000400BE000E0190009E0190000002EB00AB
:1024B4001FFC0700800178000102780060004700DB
:1024C4005001D100C080D300640047003008E1000F
:1024D4002090E1000400310061804100E0004A00E6
:1024E4000001BE0002003700030178008401780077
:1024F40061005100E0805900A01088000E22A9005C
:102504000DE2A8000F42A80032FB070031FB0700D0
:082514000080FA00000006003F
:0C15D80000CF2C001100200000000600D5
:08152C00400020000000060051
:1011D80008012000971220000E20ED00FEFF3A00C3
:1011E8001020ED00FCFF3A0000000000000006009F
:0011F800F7
:10115C000000FA00020AB800500088000200B80033
:10116C0081004200032AB800810042000080FA008E
:04117C000000060069
:101278000000FA00020007009009040000000000C6
:101288000800E20002003A00100007000000060013
:10129800811F78000200E20002003D00600010009B
:1012A800E08018000600E20002003D006001110025
:1012B800E0811900050007004F00E00002003B0034
:1012C80060001000E080180000000600020007001F
:1012D8000480BE00000006006022B800060220005C
:1012E8000000D0008180D2000482D2008582D20022
:1012F8000000A8000202520083825A0003003B004B
:101308000202420083824A000000A1000603E900AD
:10131800F3FF3A00000006000080FA000000060013
:00132800C5
:101534000000FA0002000700E80A040000000000AE
:101544000800E20002003A00100007000000060054
:10155400839F68000200E20002003D00600010006A
:10156400E08018000600E20002003D006001110066
:10157400E0811900050007004F00E00002003B0075
:1015840060001000E0801800000006006022B8002F
:10159400060220000000D0008180D2000482D20024
:1015A4008582D2000000A8000202520083825A0001
:1015B40003003B000202420083824A000000A100B3
:1015C4000603E900F3FF3A00000006000080FA0079
:0415D400000006000D
:1021D8000000FA004099200090418800000E20007D
:1021E800A0A2B700A222EF00F0F32100A4A2B7003A
:1021F800AA22EF00A1E2A8000080FA000000060071
:00220800D6
:102400000000FA0074FF0700C7FB07000080FA0015
:0424100000000600C2
:101328000000FA00100020000A00DD008080EA00BA
:10133800802A2000108860003A158800A022A800A2
:10134800A002AF0001003700FDFF3700A002A9008E
:0C1358008082BF000080FA000000060048
:102114000020EF00206288002162800020802000DF
:102124001008E10012003D00206280004201DD0041
:1021340040BC20008200400002004500B018780036
:10214400A0107800206280004201DD0060C42000FD
:102154008200400002804500B0187800A01078008A
:102164001100200040C4200010884000EAFF37001E
:1021740010408000206288002162800000802000DE
:102184001008E10012003D0020628000C200DD0062
:1021940040BC2000010140000020EF000220EF00BD
:1021A4000089BE0020628000C200DD0060C42000FF
:1021B400010140000020EF000220EF000089BE0072
:1021C4001100200040C4200010884000EAFF3700BE
:0421D4000000060001
:1015E4000E00FA000020EF00406688001000200082
:1015F4003066880041668000008120001008E10008
:1016040007003D00306680004100DD003066880040
:101614001100200080CC200010884000F5FF370026
:1016240030668000C180DE00A15D880010002000CB
:1016340020628800915D880030668000E2005000DE
:1016440040C420001008E1003B0034002162800007
:1016540020BB20001008E10023003D002062800030
:101664004201DD00820145001300BE00B05D880028
:10167400C15D8800028145001200BE00005E880042
:10168400115E8800905D80004200DD00000045008E
:10169400B0197800A0117800206280004200DD00BB
:1016A40080804500905D80004200DD0000804500A0
:1016B400B0187800A0107800905D80004200DD0032
:1016C40000014500B05D8000C15D80000089BE005E
:1016D400905D80004200DD0000814500005E8000D6
:1016E400115E80000089BE00A05D80004066880015
:1016F4004166800020BB20001008E10007003C0088
:101704004166800020BB20001088100040668000E5
:101714004180DE0040668800F5FF370041668000A6
:1017240020BB2000108840001100200040C420008D
:1017340010884000C0FF370010002000F05D8800D2
:101744000000200001F82B00D05D8800E15D8800D6
:101754000020EF000220EF00606A8800716A8800B0
:101764000020EF00506A8800516A80000081200048
:101774001008E100FA003D00F05D80004100DD004A
:10178400F05D88000020EF00905D8800915D80008E
:1017940060CC20001008E100C6003D0000002000DD
:1017A40001F82300306A8800416A88000020EF00B5
:1017B4000220EF00806A8800916A88000020EF0010
:1017C40040668800F05D8000C180DE0080CC20008F
:1017D4001008E100B30034004166800020BB200003
:1017E4009080400021628800F05D80004180DE002E
:1017F40000804000E06A88004200DD0000014500EE
:101804001200BE008C1F78008A9FBE00326A8000DE
:10181400436A8000E2FC07004F05BE0050079800B1
:1018240061079800E06A80004200DD0040079800EC
:1018340000814500220798001200BE008A9FBE0066
:10184400826A8000936A8000D5FC07004F05BE00C1
:101854004F06780000079800110798005E0090007A
:10186400EE009000829FBE000E0190009E01900049
:101874008C1F78008A9FBE0032FE07004F05BE0011
:101884004F0678004F01BE00C06A8800D16A880004
:101894002E0190001200BE008C1F78008A9FBE00AB
:1018A400326A8000436A8000BDFC07004F05BE0019
:1018B4004E0190002007980031079800020145006E
:1018C400020798001200BE008A9FBE00826A800050
:1018D400936A8000B2FC07002E019000BE019000C4
:1018E400F9FB07004F05BE00A06A8800B16A8800B2
:1018F400206280004200DD00000045001002BE00AE
:10190400C26A8000D36A80008A9FBE000400BE00C1
:101914000CFE07004F05BE000E0190000089BE00BA
:10192400E06A80004200DD00008045000007980066
:10193400206280004200DD00008045001002BE00ED
:10194400A26A8000B36A80008A9FBE000400BE00C1
:10195400FCFD07004F05BE000E0190000089BE008B
:10196400206280004200DD0000004500000798006E
:101974001001BE00C06A8000D16A80008A9FBE0048
:10198400D1FB07004F05BE000E0190000089BE0088
:10199400206280004200DD000080450000079800BE
:1019A4001001BE00A06A8000B16A80008A9FBE0058
:1019B400C5FB07000E0190000089BE00306A80005C
:1019C400416A8000D25D8000E35D800074FC070002
:1019D4002007980031079800806A8000916A80008F
:1019E400626A8000736A80006DFC07004F05BE00C8
:1019F4004F06780000079800110798002E00900009
:101A0400BE009000829FBE000E0190009E019000D7
:101A14008C1F78008A9FBE00CAFD07004F05BE00D8
:101A24004F0678004F01BE00306888004168880086
:101A34008C1F78008A9FBE00306A8000416A800053
:101A4400626A8000736A800055FC070000079800F2
:101A540011079800806A8000916A8000D25D80003E
:101A6400E35D80004EFC07000E0190009E01900093
:101A740095FB07004F05BE004F067800806A88007A
:101A8400916A88003068800041688000306A88006C
:101A9400416A88001100200080CC2000108840009A
:101AA40048FF3700F15D800020BB20001088400013
:101AB40036FF37000000200001F82300D25D8000CB
:101AC400E35D80008C1F78008A9FBE009DFD0700A7
:101AD400020020000300240047FA07000005BE00AE
:101AE4001FFE07004F05BE004F067800606A88009D
:101AF400716A88006160E10005003A00010020007D
:101B040002002800C0D4200010986800101069005A
:101B14000200200003F82300D05D8000E15D800016
:101B24008C1F78008A9FBE0067FB0700020020001C
:101B34000300240030FA07000005BE0008FE070079
:101B44004F05BE004F067800D05D8800E15D880037
:101B540011002000A0D420001088400002FF3700AC
:101B64006060E10040003A000020EF00206288003D
:101B74002162800060CC20001008E1003A003D00A2
:101B8400206280004200DD0000004500200798002C
:101B94008C1F78008A9FBE0010408000CF80DE003A
:101BA4000081EB000CFD07004F05BE004F067800D6
:101BB40000079800110798002E0190001200BE0043
:101BC400829FBE000E0190009E0190008C1F780041
:101BD4008A9FBE0008FA07004F05BE004F06780032
:101BE4004F01BE002E0190000089BE0020628000DB
:101BF4004200DD0000804500200798008C1F78001B
:101C04008A9FBE0010408000CF80DE000081EB0080
:101C1400F1FC07004F05BE004F067800000798004E
:101C2400110798002E0190001200BE00829FBE0092
:101C34000E0190009E0190008C1F78008A9FBE00C8
:101C4400EDF907004F05BE004F0678004F01BE00B6
:101C54002E0190000089BE001100200040C4200025
:101C640010884000C2FF37000080FA000000060020
:001C740070
:101364000C00FA008C1F78008A9FBE000420EF0056
:101374000620EF000A00BE00D9FB07000000E000D1
:101384000060EF0001003C000060EC004F05BE006F
:101394000040E200030032000020EF000220EF00D2
:1013A4005E0037000A0798001B0798008A9FBE005A
:1013B4000200200003F823000A00BE00C8FB070057
:1013C4000000E0000060EF0001003D000060EC0060
:1013D4004F05BE000040E200090032008A9FBE00B3
:1013E4000E0190009E0190000000200001F82300EF
:1013F40001FC07004F05BE00000798001107980084
:101404006A0047008A9FBE00000678000E0590001F
:101414009E059000C2FC07005E0190004191DE0031
:10142400020678000005BE008EFC07004F05BE00D2
:1014340000079800110798008A9FBE000200200050
:1014440003F823000A00BE00A5FB07000000E0002B
:101454000060EF0001003D000060EC004F05BE009D
:101464000040E200090032008A9FBE000E01900095
:101474009E0190000000200001F82300DEFB07001D
:101484004F05BE0000079800110798004001200096
:10149400400798008A9FBE000E0190009E019000B4
:1014A4000A00BE00D4FB07000E0190009E019000CC
:1014B40005FD07000200200003002400CEFB070006
:1014C40020079800310798000E0190009E019000BB
:1014D40083FB07000000E0000060EF0001003A0019
:1014E4000060EC004F05BE000040E2000100320045
:1014F400080037002E009000BE00900000079800FE
:10150400110798004E0090000020ED00400798005D
:10151400E0FF3A000E0090009E0090004F06780015
:081524000080FA00000006003F
:100724000400FA000A0798001B0798009E00900036
:1007340000F8270080806000C708DE00E007200082
:1007440000805000000E780001F023006200470092
:100754009080680000F827008080600062004700F5
:1007640090806800110798000E0090009E00900091
:080774000080FA0000000600FD
:100668000400FA000A0798001B0798009E009000F3
:1006780000F82700008060004700DE000000460008
:10068800000678006000E10003003D000020EF0054
:100698000220EF001F003700F00F20000060E1008B
:1006A800100034000420EF000620EF000A00BE000E
:1006B8000AFF07000000E0000060EF0001003D00B5
:1006C8000060EC000040E20003003200F0FF2F0061
:1006D800F1F72F000F003700F0FF2F00F1F7270088
:1006E8000C00370070C0B3000000FB008060DD0024
:1006F800620047009080680000F827008080600052
:100708006200470090806800110798000E00900072
:0C0718009E0090000080FA000000060027
:1002E4000000FA0014002000C4FF07000080FA0098
:0402F4000000060000
:100200000000FA00020007006E0104000000000078
:10021000841F7800140007004F007800110033009D
:10022000F0FF2F00838F6C0006003B000405650083
:100230000A00A7000800370009F0A60010002000FF
:1002400008003700820F5400838F5C0003003900E0
:100250001000200001003E000000200009F0A7006F
:100260000000EA00000006000084BE00060007004F
:100270000083BE000485BE000280BE0002000700AD
:10028000844F750000000600C70ADE00F107B200C7
:10029000F50FB20008003200E1CF42000200320048
:1002A00002E0A80024000500810F70000100320068
:1002B0000408050044000500810F700002003A00A8
:1002C000140005008502E9000000400081C04800DC
:1002D000FCFF3B0002E0A800240005000080FA00BB
:0402E0000000060014
:1003FC000000FA00020007003003040000000000B7
:10040C00889FBE008A9FBE008C1F78003E000700AC
:10041C004500330003866C006450E1002E0032006E
:10042C006420E100330032006150E1002F00320003
:10043C006120E1003100320085855500EB07B000EA
:10044C0009002000080420000500370008044400BF
:10045C0089844C000A0031000603430087834B005B
:10046C000001530081815B00F8FF33000283BE0062
:10047C001000A8000804440089844C00F6FF3900E1
:10048C00C639DD0083017300010032001300200027
:10049C008904D1000884D3000998A3000500320018
:1004AC000800A7000600A8008904D1000884D30026
:1004BC008B05E8008904D1000884D3000001EB000F
:1004CC000281D2002800070001F0A1000CF0A70067
:1004DC0003E0A8001D0037006420E1001F0032007B
:1004EC000881BE000280BE00F7FF37006120E100EA
:1004FC001A0032006000B800F3FF37000000200043
:10050C0001F82700F0FF37000084BE003C00070014
:10051C000083BE000485BE000280BE0038000700C8
:10052C00844F7500000006000280BE006450E1009C
:10053C00050036006420E100020036000968A300C3
:10054C0001003A000880BE0002C0A8004F067800E7
:10055C004F05BE004F04BE0000000600F0FF2F0048
:10056C00F1FF2700F9FF3700810020006180550062
:10057C000B003D000B00200061FE2F000100E1008C
:10058C001D00340082817100610164008904D10076
:10059C000884D3000000E800FAFF3A007100200044
:1005AC00610064000300700002006000090032006A
:1005BC0061044400E0844C000988A5000500320069
:1005CC008B05E8006808E10002003A008904D100BC
:1005DC000884D300F20F20000258E10005003D0012
:1005EC00C75DDD00F907B20089807500080088003E
:1005FC00000006000BF827001B0088000000050017
:10060C00C70ADE00F107B200F50FB2000800320095
:10061C00E1CF42000200320002E0A80024000500F5
:10062C00810F700001003200040805004400050031
:10063C00810F700002003A00140005008502E900E9
:10064C000000400081C04800FCFF3B0002E0A80015
:0C065C00240005000080FA0000000600E9
:1008CC000000FA0002000700CE0504000000000042
:1008DC00889FBE008A9FBE008C1F780059000700BD
:1008EC00600033006450E1004F0032006420E100EE
:1008FC005200320003826C0007003B000905D00057
:10090C000306D000820F54000C065D000200390073
:10091C000200320039008800C3008800858255002F
:10092C0004003D000003FD008103FD008502EA0088
:10093C008B854200840F720002003B0060001000A7
:10094C00E08018006011B8000005EB007A28E10087
:10095C000A00390006008800C75DDD00F707B20009
:10096C00878075002D003700828171002A00880075
:10097C00610560008180D1000080D3008502E90010
:10098C00F9FF3B00060440008784480002003B004E
:10099C0060041400E0841C000988A30007003200E6
:1009AC008A81710082817100610164008904D10027
:1009BC000884D3008B05E800170037000978A300E2
:1009CC0013003A001600E200130034008B05E90016
:1009DC000804440089844C000A4474000978A3007C
:1009EC000D003A001600E200070034008B05E90008
:1009FC000804440089844C0001003A000B002000DC
:100A0C000978A300F7FF32000001EB000200370069
:100A1C00828171002A008800220007000CF0A700D8
:100A2C0003E0A800180037006420E10002003A003F
:100A3C00838F6C00180033000881BE000280BE005A
:100A4C00110037000084BE003C0007000083BE008C
:100A5C000485BE000280BE0038000700844F75007C
:100A6C00000006000280BE006450E1000500360064
:100A7C006420E100020036000968A30001003A007E
:100A8C000880BE0002C0A8004F0678004F05BE00CB
:100A9C004F04BE0000000600F0FF2F00F1FF2700FE
:100AAC00F9FF370081002000618055000B003D00EC
:100ABC000B00200061FE2F000100E1001D0034003E
:100ACC0082817100610164008904D1000884D30023
:100ADC000000E800FAFF3A00710020006100640099
:100AEC000300700002006000090032006104440041
:100AFC00E0844C000988A500050032008B05E80055
:100B0C006808E10002003A008904D1000884D3008F
:100B1C00F20F20000258E10005003D00C75DDD002A
:100B2C00F907B200898075000800880000000600F3
:100B3C000BF827001B00880000000500C70ADE0028
:100B4C00F107B200F50FB20008003200E1CF42000D
:100B5C000200320002E0A80024000500810F7000A2
:100B6C00010032000408050044000500810F7000EC
:100B7C0002003A00140005008502E9000000400064
:100B8C0081C04800FCFF3B0002E0A80024000500E7
:080B9C000080FA0000000600D1
:100FDC000000FA0002000700A00804000000000056
:100FEC000400E20006003A000005EB000200E200FB
:100FFC000F003E000000E200270032000C0037001A
:10100C00A10088000200E2000400350008003C004A
:10101C000000E200200032000500370060001000E4
:10102C00E080180002003B0001F02C001A00370091
:10103C000084BE006011B8006B0920000982CF004B
:10104C00020039000882CF000441B000694252000E
:10105C000E00320008003B008281710061016400C7
:10106C008904D1000884D3008B05E8000442E80011
:10107C00F9FF3A00050037000804440089844C004D
:10108C008B05E9000442E900FBFF3A00030007006E
:10109C000AF0A70003E0A800000006008100200071
:1010AC00618055000B003D000B00200061FE2F00FD
:1010BC000100E1001D0034008281710061016400B7
:1010CC008904D1000884D3000000E800FAFF3A003C
:1010DC0071002000610064000300700002006000D9
:1010EC000900320061044400E0844C000988A5002A
:1010FC00050032008B05E8006808E10002003A00A8
:10110C008904D1000884D300F20F20000258E100BA
:10111C0005003D00C75DDD00F907B2008980750050
:10112C0008008800000006000BF827001B00880050
:0C113C00000005000080FA000000060022
:101148000000FA0007E0AA00DEFD07000080FA00B0
:04115800000006008D
:100BA4000000FA0002000700E8060400000000004C
:100BB400889FBE008A9FBE008C1F7800300007000B
:100BC4003700330003866C006450E10024003200D7
:100BD4006420E100270032006150E100220032006D
:100BE4006120E100210032008B854200EB07B10057
:100BF4000134B800003AB8000804420089844A006D
:100C0400013AB8000030B8008880400009014A0069
:100C140004003300000040008180480002014900C4
:100C24008B05E900C909DD00830170000100320071
:100C340013002000C814DE004814DD004709DE005C
:100C44001200B200C808DE00088470002400070007
:100C540001F0A1000CF0A70003E0A8001900370080
:100C64006120E1001B0032000881BE000280BE004A
:100C7400F7FF37006150E100FCFF3A001500370030
:100C84000084BE003C0007000083BE000485BE0053
:100C94000280BE0038000700844F75000000060083
:100CA4000280BE006450E100050036006420E100CB
:100CB400020036000968A30001003A000880BE0063
:100CC40002C0A8004F0678004F05BE004F04BE00C6
:100CD40000000600F0FF2F00F1FF2700F9FF3700A6
:100CE40081002000618055000B003D000B002000B6
:100CF40061FE2F000100E1001D00340082817100BB
:100D0400610164008904D1000884D3000000E80074
:100D1400FAFF3A00710020006100640003007000D3
:100D2400020060000900320061044400E0844C00C9
:100D34000988A500050032008B05E8006808E10079
:100D440002003A008904D1000884D300F20F200085
:100D54000258E10005003D00C75DDD00F907B2005F
:100D64008980750008008800000006000BF8270041
:100D74001B00880000000500C70ADE00F107B2006E
:100D8400F50FB20008003200E1CF42000200320049
:100D940002E0A80024000500810F70000100320069
:100DA4000408050044000500810F700002003A00A9
:100DB400140005008502E9000000400081C04800DD
:100DC400FCFF3B0002E0A800240005000080FA00BC
:040DD4000000060015
:102208000C00FA008A1F78008B1F78000020EF006E
:102218002062880021628000608020001008E100B0
:1022280071003D0020628000C200DD00A0CC2000CB
:10223800010040005007980020408000CF80DE0059
:102248000081EB0063FB070002FD2000930C2400D3
:1022580052FA0700000798001107980030408000E4
:102268000020ED00C180DE0040C420001080100076
:10227800CF80DE000081EB0056FB07000E019000C6
:102288009E01900045FA07000005BE00D0FA07003D
:102298002007980031079800304080006101500005
:1022A80042079800C190DE0040C420001080100052
:1022B800CF80DE000081EB0046FB070032172100CB
:1022C8009304240035FA07000007980011079800C6
:1022D8002E009000BE009000829FBE000E0190006C
:1022E8009E01900043F807004F01BE0020079800A8
:1022F80031079800206280004E019000110009000B
:102308000200D800CF80DE000081EB0031FB07001F
:1023180002FD2000930C240020FA07000005BE00EF
:10232800B3FB07000200200003F023001BFA07009C
:102338000007980011079800D0A3200071ED230032
:10234800829FBE000E0190009E0190007CFB07005A
:102358004F01BE0000079800110798003040800028
:102368006101500020628000110009000200D800BD
:10237800CF80DE000081EB0016FB070002FD200085
:10238800930C240005FA07000005BE0098FB07001F
:10239800A2702D0033DA230000FA07000E01900026
:1023A8009E01900047F907002E019000BE019000A1
:1023B800FAF907005E0190000089BE0020628000E3
:1023C800C200DD00A0D02000010140000020EF0085
:1023D8000220EF000089BE001100200040C4200048
:1023E800108840008BFF3700CF0578004F05780034
:0823F8000080FA00000006005D
:100DD8000600FA008C1F78008D1F78000020EF00B5
:100DE800404798008A9FBE000420EF000620EF00CD
:100DF8000A00BE0039FD07000000E0000060EF00B7
:100E080001003D000060EC004F05BE000040E2001C
:100E180007003200000020000100280000006D00DB
:100E280081806D000005BE0010C0B30040479800E7
:100E38008A9FBE000A00BE0032982F0023E22300DA
:100E480056FF07004F05BE000005BE008A9FBE0082
:100E58000005BE0064FE07004F05BE008A9FBE0065
:100E68000001BE000A00BE00B50007000200200015
:100E78000308240049FF07004F05BE000005BE0017
:100E88008A9FBE00020020000300240018FD07000E
:100E98000000E0000060EF00010034000060EC009A
:100EA8004F05BE000040E2000D00320002002000A5
:100EB800030024008A9FBE000A00BE00A0000700AD
:100EC8004F05BE000005BE004E4090000040E20005
:100ED8000060EF0001003A000060EC004047980015
:100EE8008A9FBE000200200003F823000A00BE000B
:100EF800FFFC07000000E0000060EF000100340084
:100F08000060EC004F05BE000040E2000700320020
:100F180000002000010024008A9FBE000A01BE00D4
:100F2800870007004F05BE000005BE008A9FBE006F
:100F38000A00BE000A01BE0018FF0700000798005B
:100F4800110798004D0020008C4629000005BE00BE
:100F580008FE07004F05BE008A9FBE000A01BE00BA
:100F68000EFF07004F05BE000005BE008A9FBE00A9
:100F78003D002000CC4729000E0590009E059000FA
:100F8800FCFD07004F05BE008A9FBE000001BE00A1
:100F98000A00BE0017FD07004F05BE000005BE0091
:100FA800640047001004E000050032000000200043
:100FB8000100280000006D0081806D0001003700ED
:100FC8000A00BE00CF0678004F0678000080FA00BD
:040FD800000006000F
:1007F0000000FA00C758DE000001EB00F00F2000F7
:1008000080806000F00720000080500080007800A9
:100810006000E10010003D000420EF000620EF0022
:100820000A00BE00AFFE07000000E0000060EF001D
:1008300001003D000060EC000040E20003003200D7
:100840000000200001F82B001E0037000020EF0000
:100850000220EF001B0037007808E100020036009C
:100860000A00BE00170037008A9FBE000A00BE00C3
:10087000A6FE07000081EB00D80107004F05BE006F
:100880000002BE00849FBE000A01BE009AFE07005F
:100890000000E0000060EF00010034000060EC00A8
:1008A0004F02BE000040E2000500320002002000BE
:1008B00003F823000400BE002302070001003700F4
:0C08C0000400BE000080FA0000000600EA
:10030C000000FA0002000700FA01040000000000DF
:10031C000081BE001F0007000470A70003F0A100BD
:10032C006509B100160032000D0035006828E100A7
:10033C0006003500F0FF2F00F1FF27000600E20059
:10034C0013003B00010028000000050000004000E5
:10035C00818048008502E900FCFF3A000800370064
:10036C00F88F420002003C008000EB00000005000A
:10037C008100D1000080D3008502E800FCFF3A0028
:10038C000600E20002003B0060001000E080180054
:10039C0000000600C70ADE00F107B200F50FB2003C
:1003AC0008003200E1CF42000200320002E0A80057
:1003BC0024000500810F70000100320004080500C4
:1003CC0044000500810F700002003A001400050083
:1003DC008502E9000000400081C04800FCFF3B00A2
:1003EC0002E0A800240005000080FA0000000600CE
:0003FC0001
:1002F8000000FA00F4FF2F00BFFF07000080FA009B
:0403080000000600EB
:10077C000000FA004268DD00000146001200BE00D5
:10078C000001BE001A00E200130032008C9FBE0074
:10079C008A9FBE000200BE000A01BE00FE000700D8
:1007AC004F05BE004F06BE006181560082067800E0
:1007BC004269DD00020246001401BE008C9FBE009F
:1007CC008A9FBE003E0007004F05BE004F06BE00CC
:1007DC000001BE00EBFF37000200BE000080FA00F3
:0407EC000000060003
:1011F8000000FA008A1F78008B1F78008A9FBE00C3
:10120800B2FD2000930424000A00BE0038FC070049
:101218000000E0000060EF00010034000060EC0016
:101228004F05BE000040E2000700320042BE2C001D
:10123800630924000A00BE00C1FF07000005BE00C4
:10124800E3FE070006003700B0FD200091FC2300F4
:101258000A01BE009BFD07000005BE00DCFE07007A
:10126800CF0578004F0578000080FA0000000600DE
:0012780076
:101C74000600FA008A1F78008B1F780000002000FD
:101C84004047980000002000504798000A07980039
:101C94001B0798000E0190009E019000F0FF2F009A
:101CA400F1FF2F000010E1000198E10005003A0067
:101CB400CB8020000C05780030FD070030C0B30055
:101CC400FE00370016C0B300600047006300400008
:101CD4001040780000E0AE000D00370060004700BF
:101CE400630140009280FB0000082000008068002F
:101CF40000497800E1404300D0C2B300004E7800B0
:101D040061004600000678000142780001003700B7
:101D1400064278000E0090009E0090006000E100F2
:101D24006088E10005003A002B8120000C05780052
:101D340012FD07000020EF00E00037000E019000C4
:101D44009E0190000000200001F827000010E1002F
:101D54000198E10005003A008B8020000C05780012
:101D640006FD070004407800D40037008C1F78007B
:101D74008A9FBE000200200003F823000E0090009A
:101D84009E00900056F907000000E0000060EF009C
:101D940001003D000060EC004F05BE004F067800D6
:101DA4000040E2000F0032008C1F78008A9FBE00C2
:101DB4000E0090009E0090000200200003122400F8
:101DC40077FB07004F05BE004F0678000007980018
:101DD40011079800DE4090006500470061C850007C
:101DE400E2FF37008C1F78008A9FBE0002002000AB
:101DF400031224000E0090009E0090003DF907009D
:101E04000000E0000060EF00010035000060EC001D
:101E14004F05BE004F0678000040E2000F0032007C
:101E24008C1F78008A9FBE000E0090009E009000D8
:101E3400D2CC2C00C3DC230059FB07004F05BE00A5
:101E44004F0678000007980011079800DE409000C4
:101E54006500470061C84000E2FF370060014700A9
:101E64003200D000A280D200000798001107980029
:101E7400600047006300400090407800F0C7B30062
:101E840000C1500060004700E300400010C0B300F0
:101E9400804878008281FB00600147001200BE0088
:101EA4008301E900030035000000D0008180D200E6
:101EB400FBFF3700000798001107980060004700F7
:101EC40063004000010320001080FB0000804000FC
:101ED400004E780061004600000678005E409000E5
:101EE4006104E100040035005E4090006604E100F6
:101EF40001003C0006003700E0C2B300004E780049
:101F0400610046000006780010C0B3004047980006
:101F140065C0B300602CE1002C0032006000470073
:101F2400E30040000020EF00804878006000470094
:101F3400B001D0002082D2008301D0000482D200FC
:101F44006001470032804100A2004A000007980067
:101F540011079800600147003200D000A280D2002F
:101F640000079800110798006000470063004000D4
:101F7400010320001080FB0000804000004E780028
:101F840061004600000678004E4090006004E100C5
:101F94000B003A005E4090000060ED00504798004E
:101FA4006004E10006003A00E0C2B300004E78008D
:101FB400610046000006780010C0B3004047980056
:101FC40061C0520080427800D2FF3700F0FF2F003A
:101FD400000046009040780000C3B300000CE1000C
:101FE40003003A006100560000067800F7FF37004E
:101FF400F0FF2F000000460090407800E0C2B300DC
:10200400000CE10002003A0061005600000678006E
:102014005E4090006004E1002500320050C6B30029
:10202400004E780061004600000678005E40900093
:102034006004E10007003D00D0C2B300004E780008
:102044006100460000067800DE409000650047000D
:1020540060C81000DE4190005E4090006904E10019
:102064000A0036000380FB00A200200011000900D2
:102074000200D80080007800000320000100400026
:10208400004E780061004600000678000380FB00E3
:10209400A2002000110009000200D8000003200063
:1020A40001004000004E7800610046000006780000
:1020B4000020EF00004E78000020EF00CF057800EC
:0C20C4004F0578000080FA0000000600C4
:101180000000FA000A00780000017800E101400048
:101190008B00780061804500800578001149780057
:1011A0001204E0000200320003007800F6FF37006E
:0C11B0000A0078000080FA000000060031
:1020D0000000FA000220EF001A4078006004E100DE
:1020E0000A0032008A1F78000085FB0033FC0700DD
:1020F0004F05780061C04000804078000080FB0000
:102100000000450010407800F4FF37000080FA001E
:0421100000000600C5
:1011BC000000FA000F02AF0001003700FDFF3700FE
:0C11CC008A1088000080FA000000060075
:10291800018020004045290009000900B01878000E
:0429280000000600A5
:0428A800200000000C
:0428AC001D0000000B
:0428B0000000000024
:0428B4000F00000011
:0828B800494E0000460000003B
:0828C0004E6100004E00000013
:0428C8000500000007
:0428CC0030000000D8
:1028D000ECF300004A4800003595000095C7000061
:1028E00017C10000DC450000FDDB00006DC30000E7
:0828F00072B300003340000048
:1028F8002B340000014800007F9D0000B045000017
:10290800E7FF0000D942000000000000803F0000FF
:0200000401F009
:1C000000078700003F000000B38700000F3100000F3300000700000003C0000091
:00000001FF
